{
  "_format": "hh-sol-artifact-1",
  "contractName": "Escrow",
  "sourceName": "contracts/Escrow.sol",
  "abi": [
    {
      "inputs": [
        {
          "internalType": "address",
          "name": "_seller",
          "type": "address"
        },
        {
          "internalType": "uint256",
          "name": "_amount",
          "type": "uint256"
        },
        {
          "internalType": "address",
          "name": "_tokenAddress",
          "type": "address"
        },
        {
          "components": [
            {
              "internalType": "uint256",
              "name": "id",
              "type": "uint256"
            },
            {
              "internalType": "string",
              "name": "name",
              "type": "string"
            },
            {
              "internalType": "string",
              "name": "description",
              "type": "string"
            },
            {
              "internalType": "uint256",
              "name": "price",
              "type": "uint256"
            },
            {
              "internalType": "address",
              "name": "seller",
              "type": "address"
            },
            {
              "internalType": "bool",
              "name": "isSold",
              "type": "bool"
            },
            {
              "internalType": "bytes32",
              "name": "ipfsHash",
              "type": "bytes32"
            },
            {
              "internalType": "string",
              "name": "category",
              "type": "string"
            },
            {
              "internalType": "string",
              "name": "image",
              "type": "string"
            }
          ],
          "internalType": "struct IProduct.Product",
          "name": "_product",
          "type": "tuple"
        },
        {
          "internalType": "address",
          "name": "_marketplace",
          "type": "address"
        }
      ],
      "stateMutability": "nonpayable",
      "type": "constructor"
    },
    {
      "anonymous": false,
      "inputs": [],
      "name": "Canceled",
      "type": "event"
    },
    {
      "anonymous": false,
      "inputs": [],
      "name": "Delivered",
      "type": "event"
    },
    {
      "anonymous": false,
      "inputs": [],
      "name": "Disputed",
      "type": "event"
    },
    {
      "anonymous": false,
      "inputs": [],
      "name": "Paid",
      "type": "event"
    },
    {
      "anonymous": false,
      "inputs": [],
      "name": "Resolved",
      "type": "event"
    },
    {
      "anonymous": false,
      "inputs": [],
      "name": "Sending",
      "type": "event"
    },
    {
      "inputs": [],
      "name": "_activatedByBuyer",
      "outputs": [
        {
          "internalType": "bool",
          "name": "",
          "type": "bool"
        }
      ],
      "stateMutability": "view",
      "type": "function"
    },
    {
      "inputs": [],
      "name": "_deliveryByBuyer",
      "outputs": [
        {
          "internalType": "bool",
          "name": "",
          "type": "bool"
        }
      ],
      "stateMutability": "view",
      "type": "function"
    },
    {
      "inputs": [],
      "name": "_deliveryByDelivery",
      "outputs": [
        {
          "internalType": "bool",
          "name": "",
          "type": "bool"
        }
      ],
      "stateMutability": "view",
      "type": "function"
    },
    {
      "inputs": [],
      "name": "_deliveryBySeller",
      "outputs": [
        {
          "internalType": "bool",
          "name": "",
          "type": "bool"
        }
      ],
      "stateMutability": "view",
      "type": "function"
    },
    {
      "inputs": [],
      "name": "_finished",
      "outputs": [
        {
          "internalType": "bool",
          "name": "",
          "type": "bool"
        }
      ],
      "stateMutability": "view",
      "type": "function"
    },
    {
      "inputs": [],
      "name": "_platformFee",
      "outputs": [
        {
          "internalType": "uint256",
          "name": "",
          "type": "uint256"
        }
      ],
      "stateMutability": "view",
      "type": "function"
    },
    {
      "inputs": [],
      "name": "amount",
      "outputs": [
        {
          "internalType": "uint256",
          "name": "",
          "type": "uint256"
        }
      ],
      "stateMutability": "view",
      "type": "function"
    },
    {
      "inputs": [],
      "name": "buyer",
      "outputs": [
        {
          "internalType": "address",
          "name": "",
          "type": "address"
        }
      ],
      "stateMutability": "view",
      "type": "function"
    },
    {
      "inputs": [],
      "name": "cancelByBuyer",
      "outputs": [],
      "stateMutability": "nonpayable",
      "type": "function"
    },
    {
      "inputs": [],
      "name": "cancelBySeller",
      "outputs": [],
      "stateMutability": "nonpayable",
      "type": "function"
    },
    {
      "inputs": [
        {
          "internalType": "address",
          "name": "_delivery",
          "type": "address"
        }
      ],
      "name": "deliver",
      "outputs": [],
      "stateMutability": "nonpayable",
      "type": "function"
    },
    {
      "inputs": [],
      "name": "deliveredByBuyer",
      "outputs": [],
      "stateMutability": "nonpayable",
      "type": "function"
    },
    {
      "inputs": [],
      "name": "deliveredByDelivery",
      "outputs": [],
      "stateMutability": "nonpayable",
      "type": "function"
    },
    {
      "inputs": [],
      "name": "deliveredBySeller",
      "outputs": [],
      "stateMutability": "nonpayable",
      "type": "function"
    },
    {
      "inputs": [],
      "name": "delivery",
      "outputs": [
        {
          "internalType": "address",
          "name": "",
          "type": "address"
        }
      ],
      "stateMutability": "view",
      "type": "function"
    },
    {
      "inputs": [],
      "name": "dispute",
      "outputs": [],
      "stateMutability": "nonpayable",
      "type": "function"
    },
    {
      "inputs": [],
      "name": "getAmount",
      "outputs": [
        {
          "internalType": "uint256",
          "name": "",
          "type": "uint256"
        }
      ],
      "stateMutability": "view",
      "type": "function"
    },
    {
      "inputs": [],
      "name": "getAmountToDelivery",
      "outputs": [
        {
          "internalType": "uint256",
          "name": "",
          "type": "uint256"
        }
      ],
      "stateMutability": "view",
      "type": "function"
    },
    {
      "inputs": [],
      "name": "getBalance",
      "outputs": [
        {
          "internalType": "uint256",
          "name": "",
          "type": "uint256"
        }
      ],
      "stateMutability": "view",
      "type": "function"
    },
    {
      "inputs": [],
      "name": "getBuyer",
      "outputs": [
        {
          "internalType": "address",
          "name": "",
          "type": "address"
        }
      ],
      "stateMutability": "view",
      "type": "function"
    },
    {
      "inputs": [],
      "name": "getContractAddress",
      "outputs": [
        {
          "internalType": "address",
          "name": "",
          "type": "address"
        }
      ],
      "stateMutability": "view",
      "type": "function"
    },
    {
      "inputs": [],
      "name": "getDelivery",
      "outputs": [
        {
          "internalType": "address",
          "name": "",
          "type": "address"
        }
      ],
      "stateMutability": "view",
      "type": "function"
    },
    {
      "inputs": [],
      "name": "getSeller",
      "outputs": [
        {
          "internalType": "address",
          "name": "",
          "type": "address"
        }
      ],
      "stateMutability": "view",
      "type": "function"
    },
    {
      "inputs": [],
      "name": "getStatus",
      "outputs": [
        {
          "internalType": "enum Escrow.Status",
          "name": "",
          "type": "uint8"
        }
      ],
      "stateMutability": "view",
      "type": "function"
    },
    {
      "inputs": [
        {
          "internalType": "address",
          "name": "_buyer",
          "type": "address"
        },
        {
          "internalType": "uint256",
          "name": "_amountToDelivery",
          "type": "uint256"
        }
      ],
      "name": "pay",
      "outputs": [],
      "stateMutability": "nonpayable",
      "type": "function"
    },
    {
      "inputs": [],
      "name": "product",
      "outputs": [
        {
          "internalType": "uint256",
          "name": "id",
          "type": "uint256"
        },
        {
          "internalType": "string",
          "name": "name",
          "type": "string"
        },
        {
          "internalType": "string",
          "name": "description",
          "type": "string"
        },
        {
          "internalType": "uint256",
          "name": "price",
          "type": "uint256"
        },
        {
          "internalType": "address",
          "name": "seller",
          "type": "address"
        },
        {
          "internalType": "bool",
          "name": "isSold",
          "type": "bool"
        },
        {
          "internalType": "bytes32",
          "name": "ipfsHash",
          "type": "bytes32"
        },
        {
          "internalType": "string",
          "name": "category",
          "type": "string"
        },
        {
          "internalType": "string",
          "name": "image",
          "type": "string"
        }
      ],
      "stateMutability": "view",
      "type": "function"
    },
    {
      "inputs": [],
      "name": "resolve",
      "outputs": [],
      "stateMutability": "nonpayable",
      "type": "function"
    },
    {
      "inputs": [],
      "name": "seller",
      "outputs": [
        {
          "internalType": "address",
          "name": "",
          "type": "address"
        }
      ],
      "stateMutability": "view",
      "type": "function"
    },
    {
      "inputs": [
        {
          "internalType": "uint256",
          "name": "platformFee",
          "type": "uint256"
        }
      ],
      "name": "setPlatformFee",
      "outputs": [],
      "stateMutability": "nonpayable",
      "type": "function"
    },
    {
      "inputs": [],
      "name": "status",
      "outputs": [
        {
          "internalType": "enum Escrow.Status",
          "name": "",
          "type": "uint8"
        }
      ],
      "stateMutability": "view",
      "type": "function"
    },
    {
      "inputs": [],
      "name": "token",
      "outputs": [
        {
          "internalType": "contract IERC20",
          "name": "",
          "type": "address"
        }
      ],
      "stateMutability": "view",
      "type": "function"
    },
    {
      "inputs": [],
      "name": "tokenAddress",
      "outputs": [
        {
          "internalType": "address",
          "name": "",
          "type": "address"
        }
      ],
      "stateMutability": "view",
      "type": "function"
    },
    {
      "inputs": [],
      "name": "withdraw",
      "outputs": [],
      "stateMutability": "nonpayable",
      "type": "function"
    }
  ],
  "bytecode": "0x60806040526103206011556000601260006101000a81548160ff0219169083151502179055506000601260016101000a81548160ff0219169083151502179055506000601260026101000a81548160ff0219169083151502179055506000601260036101000a81548160ff0219169083151502179055506000601260046101000a81548160ff0219169083151502179055506000601260056101000a81548160ff02191690836006811115620000ba57620000b962000833565b5b0217905550348015620000cc57600080fd5b50604051620038af380380620038af8339818101604052810190620000f2919062000637565b600160008190555084600160006101000a81548173ffffffffffffffffffffffffffffffffffffffff021916908373ffffffffffffffffffffffffffffffffffffffff1602179055508360038190555082600660006101000a81548173ffffffffffffffffffffffffffffffffffffffff021916908373ffffffffffffffffffffffffffffffffffffffff160217905550600660009054906101000a900473ffffffffffffffffffffffffffffffffffffffff16600f60006101000a81548173ffffffffffffffffffffffffffffffffffffffff021916908373ffffffffffffffffffffffffffffffffffffffff160217905550816007600082015181600001556020820151816001019080519060200190620002119291906200033a565b506040820151816002019080519060200190620002309291906200033a565b506060820151816003015560808201518160040160006101000a81548173ffffffffffffffffffffffffffffffffffffffff021916908373ffffffffffffffffffffffffffffffffffffffff16021790555060a08201518160040160146101000a81548160ff02191690831515021790555060c0820151816005015560e0820151816006019080519060200190620002ca9291906200033a565b50610100820151816007019080519060200190620002ea9291906200033a565b5090505080600560006101000a81548173ffffffffffffffffffffffffffffffffffffffff021916908373ffffffffffffffffffffffffffffffffffffffff160217905550505050505062000957565b8280546200034890620007c7565b90600052602060002090601f0160209004810192826200036c5760008555620003b8565b82601f106200038757805160ff1916838001178555620003b8565b82800160010185558215620003b8579182015b82811115620003b75782518255916020019190600101906200039a565b5b509050620003c79190620003cb565b5090565b5b80821115620003e6576000816000905550600101620003cc565b5090565b600062000401620003fb8462000707565b620006de565b90508281526020810184848401111562000420576200041f620008cf565b5b6200042d84828562000791565b509392505050565b6000815190506200044681620008ef565b92915050565b6000815190506200045d8162000909565b92915050565b600081519050620004748162000923565b92915050565b600082601f830112620004925762000491620008c0565b5b8151620004a4848260208601620003ea565b91505092915050565b60006101208284031215620004c757620004c6620008c5565b5b620004d4610120620006de565b90506000620004e68482850162000620565b600083015250602082015167ffffffffffffffff8111156200050d576200050c620008ca565b5b6200051b848285016200047a565b602083015250604082015167ffffffffffffffff811115620005425762000541620008ca565b5b62000550848285016200047a565b6040830152506060620005668482850162000620565b60608301525060806200057c8482850162000435565b60808301525060a062000592848285016200044c565b60a08301525060c0620005a88482850162000463565b60c08301525060e082015167ffffffffffffffff811115620005cf57620005ce620008ca565b5b620005dd848285016200047a565b60e08301525061010082015167ffffffffffffffff811115620006055762000604620008ca565b5b62000613848285016200047a565b6101008301525092915050565b60008151905062000631816200093d565b92915050565b600080600080600060a08688031215620006565762000655620008d9565b5b6000620006668882890162000435565b9550506020620006798882890162000620565b94505060406200068c8882890162000435565b935050606086015167ffffffffffffffff811115620006b057620006af620008d4565b5b620006be88828901620004ad565b9250506080620006d18882890162000435565b9150509295509295909350565b6000620006ea620006fd565b9050620006f88282620007fd565b919050565b6000604051905090565b600067ffffffffffffffff82111562000725576200072462000891565b5b6200073082620008de565b9050602081019050919050565b60006200074a8262000767565b9050919050565b60008115159050919050565b6000819050919050565b600073ffffffffffffffffffffffffffffffffffffffff82169050919050565b6000819050919050565b60005b83811015620007b157808201518184015260208101905062000794565b83811115620007c1576000848401525b50505050565b60006002820490506001821680620007e057607f821691505b60208210811415620007f757620007f662000862565b5b50919050565b6200080882620008de565b810181811067ffffffffffffffff821117156200082a576200082962000891565b5b80604052505050565b7f4e487b7100000000000000000000000000000000000000000000000000000000600052602160045260246000fd5b7f4e487b7100000000000000000000000000000000000000000000000000000000600052602260045260246000fd5b7f4e487b7100000000000000000000000000000000000000000000000000000000600052604160045260246000fd5b600080fd5b600080fd5b600080fd5b600080fd5b600080fd5b600080fd5b6000601f19601f8301169050919050565b620008fa816200073d565b81146200090657600080fd5b50565b620009148162000751565b81146200092057600080fd5b50565b6200092e816200075d565b81146200093a57600080fd5b50565b620009488162000787565b81146200095457600080fd5b50565b612f4880620009676000396000f3fe608060405234801561001057600080fd5b50600436106101fb5760003560e01c80637b3d231d1161011a578063c4076876116100ad578063dff675c21161007c578063dff675c2146104c0578063e515cd38146104de578063f240f7c3146104fa578063fc0c546a14610504578063fd5e2d7314610522576101fb565b8063c40768761461045e578063c529c1aa1461047a578063d321fe2914610484578063dbd0e1b6146104a2576101fb565b8063ac671279116100e9578063ac671279146103f2578063b0cb147914610410578063bf9ce9521461042e578063c00edde514610454576101fb565b80637b3d231d1461038e57806398f896dd146103ac5780639d76ea58146103b6578063aa8c217c146103d4576101fb565b806332a2c5d01161019257806351261ca21161016157806351261ca21461032a57806351ff69b214610334578063603daf9a146103525780637150d8ae14610370576101fb565b806332a2c5d0146102c65780633ccfd60b146102e45780633d5a70c2146102ee5780634e69d5601461030c576101fb565b806316d538f3116101ce57806316d538f3146102625780631d3f695714610280578063200d2ed21461029e5780632810e1d6146102bc576101fb565b80630441f14d1461020057806308551a531461020a57806312065fe01461022857806312e8e2c314610246575b600080fd5b610208610540565b005b61021261066d565b60405161021f9190612630565b60405180910390f35b610230610693565b60405161023d9190612885565b60405180910390f35b610260600480360381019061025b91906123c2565b61069b565b005b61026a610735565b60405161027791906126d4565b60405180910390f35b610288610748565b60405161029591906126d4565b60405180910390f35b6102a661075b565b6040516102b3919061270a565b60405180910390f35b6102c461076e565b005b6102ce6108cf565b6040516102db9190612630565b60405180910390f35b6102ec6108d7565b005b6102f6610cac565b6040516103039190612630565b60405180910390f35b610314610cd2565b604051610321919061270a565b60405180910390f35b610332610ce9565b005b61033c610f7b565b60405161034991906126d4565b60405180910390f35b61035a610f8e565b6040516103679190612630565b60405180910390f35b610378610fb8565b6040516103859190612630565b60405180910390f35b610396610fde565b6040516103a391906126d4565b60405180910390f35b6103b4610ff1565b005b6103be611283565b6040516103cb9190612630565b60405180910390f35b6103dc6112a9565b6040516103e99190612885565b60405180910390f35b6103fa6112af565b6040516104079190612885565b60405180910390f35b6104186112b9565b60405161042591906126d4565b60405180910390f35b6104366112cc565b60405161044b999897969594939291906128a0565b60405180910390f35b61045c611555565b005b61047860048036038101906104739190612355565b611682565b005b610482611a88565b005b61048c611bb5565b6040516104999190612885565b60405180910390f35b6104aa611bbf565b6040516104b79190612630565b60405180910390f35b6104c8611be9565b6040516104d59190612630565b60405180910390f35b6104f860048036038101906104f39190612328565b611c13565b005b610502611d7c565b005b61050c611edd565b60405161051991906126ef565b60405180910390f35b61052a611f03565b6040516105379190612885565b60405180910390f35b600160009054906101000a900473ffffffffffffffffffffffffffffffffffffffff1673ffffffffffffffffffffffffffffffffffffffff163373ffffffffffffffffffffffffffffffffffffffff16146105d0576040517f08c379a00000000000000000000000000000000000000000000000000000000081526004016105c7906127c5565b60405180910390fd5b60028060068111156105e5576105e4612bea565b5b601260059054906101000a900460ff16600681111561060757610606612bea565b5b14610647576040517f08c379a000000000000000000000000000000000000000000000000000000000815260040161063e90612805565b60405180910390fd5b6001601260016101000a81548160ff02191690831515021790555061066a611f09565b50565b600160009054906101000a900473ffffffffffffffffffffffffffffffffffffffff1681565b600047905090565b600560009054906101000a900473ffffffffffffffffffffffffffffffffffffffff1673ffffffffffffffffffffffffffffffffffffffff163373ffffffffffffffffffffffffffffffffffffffff161461072b576040517f08c379a000000000000000000000000000000000000000000000000000000000815260040161072290612865565b60405180910390fd5b8060118190555050565b601260049054906101000a900460ff1681565b601260029054906101000a900460ff1681565b601260059054906101000a900460ff1681565b600160009054906101000a900473ffffffffffffffffffffffffffffffffffffffff1673ffffffffffffffffffffffffffffffffffffffff163373ffffffffffffffffffffffffffffffffffffffff16146107fe576040517f08c379a00000000000000000000000000000000000000000000000000000000081526004016107f5906127c5565b60405180910390fd5b600480600681111561081357610812612bea565b5b601260059054906101000a900460ff16600681111561083557610834612bea565b5b14610875576040517f08c379a000000000000000000000000000000000000000000000000000000000815260040161086c90612805565b60405180910390fd5b6005601260056101000a81548160ff0219169083600681111561089b5761089a612bea565b5b02179055507fea00f1a0c354e8c71923a9a994e40cccad0bc6a1d8dfee4d081be694645d161060405160405180910390a150565b600030905090565b600560009054906101000a900473ffffffffffffffffffffffffffffffffffffffff1673ffffffffffffffffffffffffffffffffffffffff163373ffffffffffffffffffffffffffffffffffffffff1614610967576040517f08c379a000000000000000000000000000000000000000000000000000000000815260040161095e90612865565b60405180910390fd5b601260049054906101000a900460ff166109b6576040517f08c379a00000000000000000000000000000000000000000000000000000000081526004016109ad90612845565b60405180910390fd5b60006127106011546003546109cb91906129ec565b6109d591906129bb565b90506000816003546109e79190612a46565b9050600f60009054906101000a900473ffffffffffffffffffffffffffffffffffffffff1673ffffffffffffffffffffffffffffffffffffffff1663a9059cbb600160009054906101000a900473ffffffffffffffffffffffffffffffffffffffff16836040518363ffffffff1660e01b8152600401610a689291906126ab565b602060405180830381600087803b158015610a8257600080fd5b505af1158015610a96573d6000803e3d6000fd5b505050506040513d601f19601f82011682018060405250810190610aba9190612395565b50600f60009054906101000a900473ffffffffffffffffffffffffffffffffffffffff1673ffffffffffffffffffffffffffffffffffffffff1663a9059cbb600460009054906101000a900473ffffffffffffffffffffffffffffffffffffffff166010546040518363ffffffff1660e01b8152600401610b3c9291906126ab565b602060405180830381600087803b158015610b5657600080fd5b505af1158015610b6a573d6000803e3d6000fd5b505050506040513d601f19601f82011682018060405250810190610b8e9190612395565b50600f60009054906101000a900473ffffffffffffffffffffffffffffffffffffffff1673ffffffffffffffffffffffffffffffffffffffff1663a9059cbb600560009054906101000a900473ffffffffffffffffffffffffffffffffffffffff16846040518363ffffffff1660e01b8152600401610c0e9291906126ab565b602060405180830381600087803b158015610c2857600080fd5b505af1158015610c3c573d6000803e3d6000fd5b505050506040513d601f19601f82011682018060405250810190610c609190612395565b506001601260046101000a81548160ff0219169083151502179055507fea00f1a0c354e8c71923a9a994e40cccad0bc6a1d8dfee4d081be694645d161060405160405180910390a15050565b600460009054906101000a900473ffffffffffffffffffffffffffffffffffffffff1681565b6000601260059054906101000a900460ff16905090565b600160009054906101000a900473ffffffffffffffffffffffffffffffffffffffff1673ffffffffffffffffffffffffffffffffffffffff163373ffffffffffffffffffffffffffffffffffffffff1614610d79576040517f08c379a0000000000000000000000000000000000000000000000000000000008152600401610d70906127c5565b60405180910390fd5b6001806006811115610d8e57610d8d612bea565b5b601260059054906101000a900460ff166006811115610db057610daf612bea565b5b14610df0576040517f08c379a0000000000000000000000000000000000000000000000000000000008152600401610de790612805565b60405180910390fd5b601260049054906101000a900460ff1615610e40576040517f08c379a0000000000000000000000000000000000000000000000000000000008152600401610e3790612745565b60405180910390fd5b600f60009054906101000a900473ffffffffffffffffffffffffffffffffffffffff1673ffffffffffffffffffffffffffffffffffffffff1663a9059cbb600260009054906101000a900473ffffffffffffffffffffffffffffffffffffffff16601054600354610eb19190612965565b6040518363ffffffff1660e01b8152600401610ece9291906126ab565b602060405180830381600087803b158015610ee857600080fd5b505af1158015610efc573d6000803e3d6000fd5b505050506040513d601f19601f82011682018060405250810190610f209190612395565b506006601260056101000a81548160ff02191690836006811115610f4757610f46612bea565b5b02179055507f1afb0ae590df277bcb3a37f88612725bf1f7df4755792b1548a7efe77985ff7760405160405180910390a150565b601260039054906101000a900460ff1681565b6000600260009054906101000a900473ffffffffffffffffffffffffffffffffffffffff16905090565b600260009054906101000a900473ffffffffffffffffffffffffffffffffffffffff1681565b601260009054906101000a900460ff1681565b600260009054906101000a900473ffffffffffffffffffffffffffffffffffffffff1673ffffffffffffffffffffffffffffffffffffffff163373ffffffffffffffffffffffffffffffffffffffff1614611081576040517f08c379a000000000000000000000000000000000000000000000000000000000815260040161107890612785565b60405180910390fd5b600180600681111561109657611095612bea565b5b601260059054906101000a900460ff1660068111156110b8576110b7612bea565b5b146110f8576040517f08c379a00000000000000000000000000000000000000000000000000000000081526004016110ef90612805565b60405180910390fd5b601260049054906101000a900460ff1615611148576040517f08c379a000000000000000000000000000000000000000000000000000000000815260040161113f90612745565b60405180910390fd5b600f60009054906101000a900473ffffffffffffffffffffffffffffffffffffffff1673ffffffffffffffffffffffffffffffffffffffff1663a9059cbb600260009054906101000a900473ffffffffffffffffffffffffffffffffffffffff166010546003546111b99190612965565b6040518363ffffffff1660e01b81526004016111d69291906126ab565b602060405180830381600087803b1580156111f057600080fd5b505af1158015611204573d6000803e3d6000fd5b505050506040513d601f19601f820116820180604052508101906112289190612395565b506006601260056101000a81548160ff0219169083600681111561124f5761124e612bea565b5b02179055507f1afb0ae590df277bcb3a37f88612725bf1f7df4755792b1548a7efe77985ff7760405160405180910390a150565b600660009054906101000a900473ffffffffffffffffffffffffffffffffffffffff1681565b60035481565b6000601054905090565b601260019054906101000a900460ff1681565b60078060000154908060010180546112e390612b5a565b80601f016020809104026020016040519081016040528092919081815260200182805461130f90612b5a565b801561135c5780601f106113315761010080835404028352916020019161135c565b820191906000526020600020905b81548152906001019060200180831161133f57829003601f168201915b50505050509080600201805461137190612b5a565b80601f016020809104026020016040519081016040528092919081815260200182805461139d90612b5a565b80156113ea5780601f106113bf576101008083540402835291602001916113ea565b820191906000526020600020905b8154815290600101906020018083116113cd57829003601f168201915b5050505050908060030154908060040160009054906101000a900473ffffffffffffffffffffffffffffffffffffffff16908060040160149054906101000a900460ff169080600501549080600601805461144490612b5a565b80601f016020809104026020016040519081016040528092919081815260200182805461147090612b5a565b80156114bd5780601f10611492576101008083540402835291602001916114bd565b820191906000526020600020905b8154815290600101906020018083116114a057829003601f168201915b5050505050908060070180546114d290612b5a565b80601f01602080910402602001604051908101604052809291908181526020018280546114fe90612b5a565b801561154b5780601f106115205761010080835404028352916020019161154b565b820191906000526020600020905b81548152906001019060200180831161152e57829003601f168201915b5050505050905089565b600460009054906101000a900473ffffffffffffffffffffffffffffffffffffffff1673ffffffffffffffffffffffffffffffffffffffff163373ffffffffffffffffffffffffffffffffffffffff16146115e5576040517f08c379a00000000000000000000000000000000000000000000000000000000081526004016115dc90612765565b60405180910390fd5b60028060068111156115fa576115f9612bea565b5b601260059054906101000a900460ff16600681111561161c5761161b612bea565b5b1461165c576040517f08c379a000000000000000000000000000000000000000000000000000000000815260040161165390612805565b60405180910390fd5b6001601260036101000a81548160ff02191690831515021790555061167f611f09565b50565b600080600681111561169757611696612bea565b5b601260059054906101000a900460ff1660068111156116b9576116b8612bea565b5b146116f9576040517f08c379a00000000000000000000000000000000000000000000000000000000081526004016116f090612805565b60405180910390fd5b60001515601260009054906101000a900460ff1615151461174f576040517f08c379a000000000000000000000000000000000000000000000000000000000815260040161174690612725565b60405180910390fd5b601260059054906101000a900460ff16600681111561177157611770612bea565b5b6001600681111561178557611784612bea565b5b14156117c6576040517f08c379a00000000000000000000000000000000000000000000000000000000081526004016117bd906127a5565b60405180910390fd5b82600260006101000a81548173ffffffffffffffffffffffffffffffffffffffff021916908373ffffffffffffffffffffffffffffffffffffffff1602179055508160108190555060105460035461181e9190612965565b600f60009054906101000a900473ffffffffffffffffffffffffffffffffffffffff1673ffffffffffffffffffffffffffffffffffffffff1663dd62ed3e600260009054906101000a900473ffffffffffffffffffffffffffffffffffffffff16306040518363ffffffff1660e01b815260040161189d92919061264b565b60206040518083038186803b1580156118b557600080fd5b505afa1580156118c9573d6000803e3d6000fd5b505050506040513d601f19601f820116820180604052508101906118ed91906123ef565b101561192e576040517f08c379a0000000000000000000000000000000000000000000000000000000008152600401611925906127e5565b60405180910390fd5b600f60009054906101000a900473ffffffffffffffffffffffffffffffffffffffff1673ffffffffffffffffffffffffffffffffffffffff166323b872dd600260009054906101000a900473ffffffffffffffffffffffffffffffffffffffff16306010546003546119a09190612965565b6040518463ffffffff1660e01b81526004016119be93929190612674565b602060405180830381600087803b1580156119d857600080fd5b505af11580156119ec573d6000803e3d6000fd5b505050506040513d601f19601f82011682018060405250810190611a109190612395565b506001601260056101000a81548160ff02191690836006811115611a3757611a36612bea565b5b02179055506001601260006101000a81548160ff0219169083151502179055507f34ec5380860d4fd12cd95d4d2f001afc87d48bfc50847bec134b0c315c8e2d7760405160405180910390a1505050565b600260009054906101000a900473ffffffffffffffffffffffffffffffffffffffff1673ffffffffffffffffffffffffffffffffffffffff163373ffffffffffffffffffffffffffffffffffffffff1614611b18576040517f08c379a0000000000000000000000000000000000000000000000000000000008152600401611b0f90612785565b60405180910390fd5b6002806006811115611b2d57611b2c612bea565b5b601260059054906101000a900460ff166006811115611b4f57611b4e612bea565b5b14611b8f576040517f08c379a0000000000000000000000000000000000000000000000000000000008152600401611b8690612805565b60405180910390fd5b6001601260026101000a81548160ff021916908315150217905550611bb2611f09565b50565b6000600354905090565b6000600160009054906101000a900473ffffffffffffffffffffffffffffffffffffffff16905090565b6000600460009054906101000a900473ffffffffffffffffffffffffffffffffffffffff16905090565b6001806006811115611c2857611c27612bea565b5b601260059054906101000a900460ff166006811115611c4a57611c49612bea565b5b14611c8a576040517f08c379a0000000000000000000000000000000000000000000000000000000008152600401611c8190612805565b60405180910390fd5b60011515601260009054906101000a900460ff16151514611ce0576040517f08c379a0000000000000000000000000000000000000000000000000000000008152600401611cd790612825565b60405180910390fd5b81600460006101000a81548173ffffffffffffffffffffffffffffffffffffffff021916908373ffffffffffffffffffffffffffffffffffffffff1602179055506002601260056101000a81548160ff02191690836006811115611d4757611d46612bea565b5b02179055507f3820772f18c9ea9bcc349576522aa2879f4eb8d20f914805082608120ac651df60405160405180910390a15050565b600260009054906101000a900473ffffffffffffffffffffffffffffffffffffffff1673ffffffffffffffffffffffffffffffffffffffff163373ffffffffffffffffffffffffffffffffffffffff1614611e0c576040517f08c379a0000000000000000000000000000000000000000000000000000000008152600401611e0390612785565b60405180910390fd5b6001806006811115611e2157611e20612bea565b5b601260059054906101000a900460ff166006811115611e4357611e42612bea565b5b14611e83576040517f08c379a0000000000000000000000000000000000000000000000000000000008152600401611e7a90612805565b60405180910390fd5b6004601260056101000a81548160ff02191690836006811115611ea957611ea8612bea565b5b02179055507f62e6201d9d8347c868b82a92d7fbfb40d6ec959b06b155dd3a486b2fdc7e9cfe60405160405180910390a150565b600f60009054906101000a900473ffffffffffffffffffffffffffffffffffffffff1681565b60115481565b601260049054906101000a900460ff1615611f59576040517f08c379a0000000000000000000000000000000000000000000000000000000008152600401611f5090612745565b60405180910390fd5b60011515601260029054906101000a900460ff1615151480611fad575060011515601260019054906101000a900460ff161515148015611fac575060011515601260039054906101000a900460ff161515145b5b156122d2576000612710601154600354611fc791906129ec565b611fd191906129bb565b9050600081600354611fe39190612a46565b9050600f60009054906101000a900473ffffffffffffffffffffffffffffffffffffffff1673ffffffffffffffffffffffffffffffffffffffff1663a9059cbb600160009054906101000a900473ffffffffffffffffffffffffffffffffffffffff16836040518363ffffffff1660e01b81526004016120649291906126ab565b602060405180830381600087803b15801561207e57600080fd5b505af1158015612092573d6000803e3d6000fd5b505050506040513d601f19601f820116820180604052508101906120b69190612395565b50600f60009054906101000a900473ffffffffffffffffffffffffffffffffffffffff1673ffffffffffffffffffffffffffffffffffffffff1663a9059cbb600460009054906101000a900473ffffffffffffffffffffffffffffffffffffffff166010546040518363ffffffff1660e01b81526004016121389291906126ab565b602060405180830381600087803b15801561215257600080fd5b505af1158015612166573d6000803e3d6000fd5b505050506040513d601f19601f8201168201806040525081019061218a9190612395565b50600f60009054906101000a900473ffffffffffffffffffffffffffffffffffffffff1673ffffffffffffffffffffffffffffffffffffffff1663a9059cbb600560009054906101000a900473ffffffffffffffffffffffffffffffffffffffff16846040518363ffffffff1660e01b815260040161220a9291906126ab565b602060405180830381600087803b15801561222457600080fd5b505af1158015612238573d6000803e3d6000fd5b505050506040513d601f19601f8201168201806040525081019061225c9190612395565b506001601260046101000a81548160ff0219169083151502179055506003601260056101000a81548160ff0219169083600681111561229e5761229d612bea565b5b02179055507f779822f74c5b9c254ba505f56b3198e1c3435161064dcb6a5bff803589dc697360405160405180910390a150505b565b6000813590506122e381612ecd565b92915050565b6000815190506122f881612ee4565b92915050565b60008135905061230d81612efb565b92915050565b60008151905061232281612efb565b92915050565b60006020828403121561233e5761233d612c48565b5b600061234c848285016122d4565b91505092915050565b6000806040838503121561236c5761236b612c48565b5b600061237a858286016122d4565b925050602061238b858286016122fe565b9150509250929050565b6000602082840312156123ab576123aa612c48565b5b60006123b9848285016122e9565b91505092915050565b6000602082840312156123d8576123d7612c48565b5b60006123e6848285016122fe565b91505092915050565b60006020828403121561240557612404612c48565b5b600061241384828501612313565b91505092915050565b61242581612a7a565b82525050565b61243481612a8c565b82525050565b61244381612a98565b82525050565b61245281612adf565b82525050565b61246181612af1565b82525050565b600061247282612949565b61247c8185612954565b935061248c818560208601612b27565b61249581612c4d565b840191505092915050565b60006124ad601a83612954565b91506124b882612c5e565b602082019050919050565b60006124d0601983612954565b91506124db82612c87565b602082019050919050565b60006124f3602883612954565b91506124fe82612cb0565b604082019050919050565b6000612516602583612954565b915061252182612cff565b604082019050919050565b6000612539600c83612954565b915061254482612d4e565b602082019050919050565b600061255c602683612954565b915061256782612d77565b604082019050919050565b600061257f601783612954565b915061258a82612dc6565b602082019050919050565b60006125a2600e83612954565b91506125ad82612def565b602082019050919050565b60006125c5601683612954565b91506125d082612e18565b602082019050919050565b60006125e8601583612954565b91506125f382612e41565b602082019050919050565b600061260b603883612954565b915061261682612e6a565b604082019050919050565b61262a81612ad5565b82525050565b6000602082019050612645600083018461241c565b92915050565b6000604082019050612660600083018561241c565b61266d602083018461241c565b9392505050565b6000606082019050612689600083018661241c565b612696602083018561241c565b6126a36040830184612621565b949350505050565b60006040820190506126c0600083018561241c565b6126cd6020830184612621565b9392505050565b60006020820190506126e9600083018461242b565b92915050565b60006020820190506127046000830184612449565b92915050565b600060208201905061271f6000830184612458565b92915050565b6000602082019050818103600083015261273e816124a0565b9050919050565b6000602082019050818103600083015261275e816124c3565b9050919050565b6000602082019050818103600083015261277e816124e6565b9050919050565b6000602082019050818103600083015261279e81612509565b9050919050565b600060208201905081810360008301526127be8161252c565b9050919050565b600060208201905081810360008301526127de8161254f565b9050919050565b600060208201905081810360008301526127fe81612572565b9050919050565b6000602082019050818103600083015261281e81612595565b9050919050565b6000602082019050818103600083015261283e816125b8565b9050919050565b6000602082019050818103600083015261285e816125db565b9050919050565b6000602082019050818103600083015261287e816125fe565b9050919050565b600060208201905061289a6000830184612621565b92915050565b6000610120820190506128b6600083018c612621565b81810360208301526128c8818b612467565b905081810360408301526128dc818a612467565b90506128eb6060830189612621565b6128f8608083018861241c565b61290560a083018761242b565b61291260c083018661243a565b81810360e08301526129248185612467565b90508181036101008301526129398184612467565b90509a9950505050505050505050565b600081519050919050565b600082825260208201905092915050565b600061297082612ad5565b915061297b83612ad5565b9250827fffffffffffffffffffffffffffffffffffffffffffffffffffffffffffffffff038211156129b0576129af612b8c565b5b828201905092915050565b60006129c682612ad5565b91506129d183612ad5565b9250826129e1576129e0612bbb565b5b828204905092915050565b60006129f782612ad5565b9150612a0283612ad5565b9250817fffffffffffffffffffffffffffffffffffffffffffffffffffffffffffffffff0483118215151615612a3b57612a3a612b8c565b5b828202905092915050565b6000612a5182612ad5565b9150612a5c83612ad5565b925082821015612a6f57612a6e612b8c565b5b828203905092915050565b6000612a8582612ab5565b9050919050565b60008115159050919050565b6000819050919050565b6000819050612ab082612eb9565b919050565b600073ffffffffffffffffffffffffffffffffffffffff82169050919050565b6000819050919050565b6000612aea82612b03565b9050919050565b6000612afc82612aa2565b9050919050565b6000612b0e82612b15565b9050919050565b6000612b2082612ab5565b9050919050565b60005b83811015612b45578082015181840152602081019050612b2a565b83811115612b54576000848401525b50505050565b60006002820490506001821680612b7257607f821691505b60208210811415612b8657612b85612c19565b5b50919050565b7f4e487b7100000000000000000000000000000000000000000000000000000000600052601160045260246000fd5b7f4e487b7100000000000000000000000000000000000000000000000000000000600052601260045260246000fd5b7f4e487b7100000000000000000000000000000000000000000000000000000000600052602160045260246000fd5b7f4e487b7100000000000000000000000000000000000000000000000000000000600052602260045260246000fd5b600080fd5b6000601f19601f8301169050919050565b7f416c726561647920616374697661746564206279206275796572000000000000600082015250565b7f436f6e747261637420616c72656164792066696e697368656400000000000000600082015250565b7f4f6e6c79207468652064656c69766572792063616e2063616c6c20746869732060008201527f66756e6374696f6e000000000000000000000000000000000000000000000000602082015250565b7f4f6e6c79207468652062757965722063616e2063616c6c20746869732066756e60008201527f6374696f6e000000000000000000000000000000000000000000000000000000602082015250565b7f416c726561647920706169640000000000000000000000000000000000000000600082015250565b7f4f6e6c79207468652073656c6c65722063616e2063616c6c207468697320667560008201527f6e6374696f6e0000000000000000000000000000000000000000000000000000602082015250565b7f546f6b656e20616c6c6f77616e636520746f6f206c6f77000000000000000000600082015250565b7f496e76616c696420737461747573000000000000000000000000000000000000600082015250565b7f4e6f742061637469766174656420627920627579657200000000000000000000600082015250565b7f436f6e7472616374206e6f742066696e69736865640000000000000000000000600082015250565b7f4f6e6c7920746865206f776e6572206f6620746865206d61726b6574706c616360008201527f652063616e2063616c6c20746869732066756e6374696f6e0000000000000000602082015250565b60078110612eca57612ec9612bea565b5b50565b612ed681612a7a565b8114612ee157600080fd5b50565b612eed81612a8c565b8114612ef857600080fd5b50565b612f0481612ad5565b8114612f0f57600080fd5b5056fea26469706673582212208dda419862b796f701b9b3cc191970b83b98118d06119576d263c7b11313ea8064736f6c63430008070033",
  "linkReferences": {},
  "deployedLinkReferences": {}
}